:020000040800F2
:10000000180800204501000819020008DF01000857
:1000100015020008A90100082D03000800000000D7
:10002000000000000000000000000000B102000815
:10003000AD0100080000000069020008B3020008DA
:100040005F0100085F0100085F0100085F01000810
:100050005F0100085F0100085F0100085F01000800
:100060005F0100085F0100085F0100085F010008F0
:100070005F0100085F0100085F0100085F010008E0
:100080005F0100085F0100085F0100085F010008D0
:100090005F0100085F0100085F0100085F010008C0
:1000A0005F0100085F0100085F0100085F010008B0
:1000B0005F0100085F0100085F0100085F010008A0
:1000C0005F0100085F0100085F0100085F01000890
:1000D0005F0100085F0100085F0100085F01000880
:1000E0005F0100085F0100085F0100085F01000870
:1000F0005F0100085F0100085F0100085F01000860
:100100005F0100085F0100085F0100085F0100084F
:100110005F0100085F0100085F0100085F0100083F
:100120005F0100085F0100085F0100085F0100082F
:10013000DFF80CD000F026F80048004791040008D2
:10014000180800200648804706480047FEE7FEE7FB
:10015000FEE7FEE7FEE7FEE7FEE7FEE7FEE7FEE777
:10016000BD0200083101000810B54843044600F004
:1001700097F9002805D00021002C02D0641E0155FB
:10018000FAE710BD064C074D06E0E06840F00103B9
:1001900094E8070098471034AC42F6D3FFF7CCFF41
:1001A00098060008B806000800BFFEE7704710B5C3
:1001B00004462168E06800F009F9204600F0DEF806
:1001C00010BD70B504460D4625B12168E06800F009
:1001D000FFF803E02168E06800F0F8F870BD00BFA8
:1001E000FEE7000010B50948007800F0010108485A
:1001F0000068026906480068904704480068401C8F
:1002000002490860642000F0A3F810BD0C00002033
:100210000800002000BFFEE77047000010B500286E
:1002200007DA0A07140E054A00F00F031B1FD45407
:1002300003E00A07130E024A135410BD18ED00E044
:1002400000E400E010B5042310220221044800F06D
:100250000DF80449086040F2026000F057F910BD43
:100260000008014008000020704700002DE9F0411F
:1002700005460E461746984618210120FFF774FFE1
:100280000446094820610948606167602660E560AE
:10029000C4F80880D4E90031D4E9022000F09AF8CB
:1002A0002046BDE8F0810000C3010008AF0100084E
:1002B000704710B500F056F810BD000008B518489A
:1002C000006840F47000164908601648006840F065
:1002D0000100144908600846406840F0800048600A
:1002E0000020009002E00098401C009044F620613D
:1002F00000988842F7D300200A494860C86208463F
:10030000006809490840074908604FF41F008860E9
:100310000846006820F48020086000F091F908BDCC
:1003200088ED00E000100240FFFFF6FE00BFFEE790
:1003300002E008C8121F08C1002AFAD170477047AE
:10034000002001E001C1121F002AFBD1704700000C
:100350000349086000BF024909680029FBD17047C2
:10036000040000200448006820B103480068401ED3
:1003700001490860704700000400002010B5002803
:1003800021D0114B0022001F196803E0814203D8DD
:100390000A4649680029F9D152B11368841A9C426F
:1003A00004D1006818441060104602E0506000E07C
:1003B000186039B102680B1A934203D10B681A44D2
:1003C00002604968416010BD100000204161704723
:1003D00001617047F0B5044616460025002201F081
:1003E0000F0501F0100747B1042E05D145F00305B4
:1003F000E76B1F43E76300E0354300201EE0012761
:1004000087401F40C7B122684FEA800C0F2707FAC8
:100410000CF7BA43870005FA07F73A43282904D1B5
:10042000012787401F40676105E0482903D1012764
:1004300087401F4027612260471CB8B20828DED3DE
:10044000082022E0012787401F40E7B16268A0F141
:1004500008074FEA870C0F2707FA0CF7BA43A0F1F9
:100460000807BF0005FA07F73A43282904D10127F6
:1004700087401F40676105E0482903D10127874075
:100480001F4027616260471CB8B21028DAD3F0BD64
:1004900000F0DAF8FFF7D6FE00BFFFF7A3FEFCE797
:1004A000F0B50B30154D20F007010024144A0FE081
:1004B00003688B420BD38B4205D95E1A43184768F9
:1004C000C3E9006700E04368136002C004E0021D56
:1004D00010680028ECD12046002802D1286808B115
:1004E0000020F0BD064A07481060074A121A22F0A1
:1004F0000702C0E9002401202860D7E7140000208B
:10050000100000201C00002018040020064A02EB06
:100510009011096800F01F0301229A401143024B19
:1005200003EB901211607047001002400020002180
:100530003F4A126842F480323D4B1A6000BF401CB3
:100540003B4A126802F4003119B94FF6FF7290422B
:10055000F5D1374A126802F400320AB900BFFEE74B
:10056000334AD26942F08052314BDA61314A126823
:1005700042F440422F4B1A602D4A52682C4B5A606D
:100580001A4652685A601A46526842F480625A60AB
:100590001A46526822F440325A601A46526842F4AF
:1005A00040325A601A465268234B1A40204B5A6018
:1005B0001A465268214B1A431D4B5A601A4612685C
:1005C00042F080721A6000BF194A126802F000728D
:1005D000002AF9D0174A126842F48032154B1A608B
:1005E00000BF144A526802F48032002AF9D0114A3E
:1005F000126842F400320F4B1A6000BF0D4A526875
:1006000002F40032002AF9D0094A526822F00302AB
:10061000074B5A601A46526842F002025A6000BF05
:10062000034A526802F00802002AF9D0704700001D
:100630000010024000700040FFFFC3B70000340804
:1006400010B5FFF773FF10BD10B5124800684FF4E6
:100650007A71B0FBF1F4601EB0F1807F01D301200C
:100660000FE0601E4FF0E02148610F214FF0FF3096
:10067000FFF7D4FD00204FF0E021886107200861DA
:10068000002008B100BFFEE70021481EFFF7C6FDAD
:1006900010BD000000000020B80600080000002087
:1006A0001800000030030008D006000818000020E1
:1006B0000008000040030008000E270700000000AB
:1006C000000000000000000000000000000000002A
:0400000508000131BD
:00000001FF
