:020000040800F2
:10000000A8080020650100088102000833020008EA
:100010007D020008FD010008E5080008000000005E
:100020000000000000000000000000003303000892
:100030000102000800000000DD020008350300088E
:100040007F0100087F0100087F0100087F01000890
:100050007F0100087F0100087F0100087F01000880
:100060007F0100087F0100087F0100087F01000870
:100070007F0100087F0100087F0100087F01000860
:100080007F0100087F0100087F0100087F01000850
:100090007F0100087F0100087F0100087F01000840
:1000A0007F0100087F0100087F0100087F01000830
:1000B0007F0100087F0100087F0100087F01000820
:1000C0007F0100087F0100087F0100087F01000810
:1000D0007F010008AD0300087F0100087F010008D0
:1000E0007F0100087F0100087F0100087F010008F0
:1000F0007F0100087F0100087F0100080000000068
:100100007F010008000000007F0100087F01000857
:100110007F0100087F0100087F0100087F010008BF
:100120007F0100087F0100087F0100087F010008AF
:100130007F0100087F0100087F0100087F0100089F
:100140007F0100087F0100087F0100087F0100088F
:10015000DFF80CD000F040F800480047810D00089F
:10016000A80800200648804706480047FEE7FEE74B
:10017000FEE7FEE7FEE7FEE7FEE7FEE7FEE7FEE757
:100180003D03000851010008D2B201E000F8012B44
:10019000491EFBD270470022F6E710B513460A4607
:1001A00004461946FFF7F0FF204610BD421C10F828
:1001B000011B0029FBD1801A704710B54843044643
:1001C00000F0E6FD002805D00021002C02D0641EBE
:1001D0000155FAE710BD0000064C074D06E0E06847
:1001E00040F0010394E8070098471034AC42F6D37E
:1001F000FFF7B2FF4C1400086C14000800BFFEE7C4
:10020000704710B504462168E06800F00FFD2046F5
:1002100000F0E4FC10BD70B504460D4625B1216820
:10022000E06800F005FD03E02168E06800F0FEFCF6
:1002300070BD00BFFEE7000010B5022204210A488D
:1002400000F008FC01280BD102220421064800F02E
:10025000F9FB06A000F048FB0421034800F088FBEE
:10026000012000F069FB10BD00000240526563658B
:1002700069766564206F6B210D0A000000BFFEE700
:100280007047000010B5002807DA0A07140E054A67
:1002900000F00F031B1FD45403E00A07130E024A99
:1002A000135410BD18ED00E000E400E010B500F0BC
:1002B000D1F80448816804480068884703A000F02A
:1002C00013FB10BD140000200C00002048656C6C6E
:1002D0006F204A656C696E21210D0A00704700008D
:1002E0002DE9F04105460E46174698461821012093
:1002F000FFF763FF044609482061094860616760B1
:100300002660E560C4F80880D4E90031D4E9022011
:1003100000F090FC2046BDE8F081000017020008C4
:100320000302000810B504460121204600F0E0FC5D
:1003300010BD704710B500F009FB10BD08B5184896
:10034000006840F47000164908601648006840F0E4
:100350000100144908600846406840F08000486089
:100360000020009002E00098401C009044F62061BC
:1003700000988842F7D300200A494860C8620846BE
:10038000006809490840074908604FF47F00886009
:100390000846006820F48020086000F037FF08BDA0
:1003A00088ED00E000100240FFFFF6EA70B5254836
:1003B0000168254888470446244951F824100868F4
:1003C00000F09CFFC5B2601C28B1204850F8240002
:1003D00090F8E40000B170BD1C4850F82400D0F83B
:1003E0000C0138B1194850F82400D0F80C112846F7
:1003F0008847F0E716480168144850F82400C0F810
:10040000DC10124951F82410D1F8E000411C0F4AC9
:1004100052F82420C2F8E0100C4951F8241014318D
:100420000D540A4850F82400D0F8E000C82801D341
:10043000012100E00021054850F8240080F8E41074
:1004400000BFC8E7140000200038014094000020DD
:100450000800002010B588B04FF4A06000F00AFE3C
:1004600040F20E6000F006FE40F2036000F002FE73
:100470004FF4C06000F0FEFD0323182240212848FD
:10048000FFF72EFF0323042280212548FFF728FFD2
:100490000420FFF747FF00200090224800231A465F
:1004A0004FF4E13144682048A047204908600846DD
:1004B0000068D0F8F8101D480068884704211A48E1
:1004C00000F0A4FF4021184800F06FFF04211848F5
:1004D00000F080FA00208DF81E00164803900120DD
:1004E0008DF81D0000200490142005900E48001D7A
:1004F000019000208DF81C0002904FF440500690AF
:1005000001AA04210A4800F0B1FA0421084800F0C9
:1005100048FA0421064800F02BFA08B010BD00008C
:10052000000C014014000020003801400C000020A5
:1005300000000240300000200149086070470000C0
:100540001000002010B50446206800F029FF0021AB
:10055000206800F06BFF10BD10B50446206800F065
:10056000D7FE10BD02464FF0FF30002108E0064BD9
:1005700053F821301B68934201D1084602E0491C20
:100580000529F4DB00BF70479400002010B5044635
:100590002046D4F8F4108847D4E9000100F066FE44
:1005A000A168206800F02AFFE168206800F046FF9B
:1005B0002169206800F032FF18492068884205D17F
:1005C00001220021252000F019FC26E014492068B2
:1005D000884205D101220021262000F00FFC1CE0FA
:1005E00010492068884205D101220021272000F00F
:1005F00005FC12E00C492068884205D10122002147
:10060000342000F0FBFB08E008492068884204D150
:1006100001220021352000F0F1FB10BD003801401F
:100620000044004000480040004C004000500040A2
:1006300010B50446206800F0C0FE0821206800F0D4
:10064000F5FE10BD2DE9F04706460F469046994647
:10065000DDF820A02A480168304688470546002476
:10066000681CA0B94FF490710120FFF7A6FD044665
:10067000002505E0234850F8250000B902E06D1C74
:10068000052DF7DB00BF1F4840F8254002E01D485C
:1006900050F825406760C4F80C902660C4F810A09C
:1006A000C4F808800120A4F8EC00C82104F114006B
:1006B000FFF771FD0021C4F8E010C4F8DC10C4F8A5
:1006C000E810012184F8E4100F48F03460600F480E
:1006D00020600F48A0600F48E0600F4820610F487D
:1006E00060610F48A0610020E0610E4860620E4822
:1006F000206254F8F019204688472046BDE8F0876C
:100700001400002094000020590500088D05000801
:10071000310600084505000887080008A5080008FC
:10072000C9080008B50700084507000810B50446C9
:100730000421206800F06AFE40F20531206800F0D4
:1007400050FE10BD70B5044600250021C4F8E0102D
:1007500017480168C4F8DC100021C4F8E81084F8D8
:10076000E4102046FFF7E2FFC82104F11400FFF770
:1007700012FD10E0D4F8DC000D490968081A0228BF
:1007800001D9681C85B2B4F8EC00A84200DA03E095
:10079000012000F0D1F8EDE700BF012184F8E4105A
:1007A000D4F8E010C4F8E810B4F8E80080B270BDE6
:1007B000080000202DE9F05F05460F4616469946D1
:1007C000DDE90A8B0024A24600BF2846D5F81011A7
:1007D0008847D5F8E80000283DD09FB1002407E005
:1007E00005F11400005D395D884200D002E0641C10
:1007F000B442F5DB00BFB44201D1012000E000208B
:10080000824601E04FF0010ABAF1000F00D123E067
:10081000DFB100240FE0D5F8E800401E011B05F110
:100820001400415CA8F10100001B19F8000081428E
:1008300000D002E0641C4445EDDB00BF444501D11B
:10084000012000E00020824601E04FF0010ABAF1E9
:10085000000F00D003E000BF0C980028B5D100BF06
:10086000002406E0311905F11400405C0BF8040087
:10087000641C08EB0601D5F8E800401AA042F1D844
:10088000A0B2BDE8F09F70B504460D462946206829
:1008900000F039FD00BF0721206800F093FD00281B
:1008A000F9D070BD2DE9F04105460E4617460024EB
:1008B00000BF05E0315D2846D5F800219047641C53
:1008C000BC42F7DBBDE8F08170B504460D46284612
:1008D000FFF76CFC86B2324629462046D4F8043134
:1008E000984770BD00BFFEE7014A024900F013B807
:1008F000B50B00082400002002E008C8121F08C140
:10090000002AFAD170477047002001E001C1121F90
:10091000002AFBD170472DE9F04116460F460446E8
:10092000002503E03946B047641C6D1C2078002880
:10093000F8D12846BDE8F0810349086000BF0249AC
:1009400009680029FBD170470400002006480068B0
:10095000401C054908600548006820B1034800684C
:10096000401E024908607047080000200400002073
:1009700070B505460C462146284600F00FF908B927
:1009800000BFFEE704EB8400810005F10800405839
:1009900040F0010104EB8400820005F10800815061
:1009A00070BD70B505460C462146284600F0F6F8A5
:1009B00008B900BFFEE704EB8400810005F10800E0
:1009C000405840F0200104EB8400820005F108004B
:1009D000815070BD70B504460D462946204600F092
:1009E000DDF808B900BFFEE705EB8500810004F1E2
:1009F0000800405820F0010105EB8500820004F159
:100A000008008150002105EB8500820004F10800F8
:100A1000815005EB8500820004F10C00815005EB4C
:100A20008500820004F11000815005EB85008200F2
:100A300004F1140081506068AA000F21914008431E
:100A4000606070BD10B543688C0002FA04F4234363
:100A5000436010BD30B503461C688D0002FA05F5F1
:100A60002C400CB1012000E0002030BD2DE9F04108
:100A700004460D4616462946204600F08FF808B970
:100A800000BFFEE705EB8500820004F1100031682D
:100A9000815005EB8500820004F11400B16881509B
:100AA000308A81B205EB8500820004F10C00815090
:100AB00005EB8500810004F10800475827F47C57B6
:100AC000F1687068084371690843074305EB8500C6
:100AD000810004F108004750307E01280ED105EB5B
:100AE0008500810004F10800405840F0400105EB0A
:100AF0008500820004F1080081500DE005EB8500BF
:100B0000810004F10800405820F0400105EB850009
:100B1000820004F108008150707E01280ED105EB9F
:100B20008500810004F10800405840F0800105EB89
:100B30008500820004F1080081500DE005EB85007E
:100B4000810004F10800405820F0800105EB850089
:100B5000820004F108008150B07E70B905EB850079
:100B6000810004F10800405820F0100105EB8500D9
:100B7000820004F1080081500DE005EB8500810042
:100B800004F10800405840F0100105EB8500820098
:100B900004F108008150BDE8F08100000246012008
:100BA000034B9A4202D1042900DD00207047000067
:100BB0000004024070B504460D460748006808B9B5
:100BC000204670BDE1B204480068D0F80021024818
:100BD000006890472046F4E71000002010B5002878
:100BE00021D0114B0022001F196803E0814203D875
:100BF0000A4649680029F9D152B11368841A9C4207
:100C000004D1006818441060104602E0506000E013
:100C1000186039B102680B1A934203D10B681A4469
:100C200002604968416010BD2800002041617047A2
:100C300001617047F0B5044616460025002201F018
:100C40000F0501F0100747B1042E05D145F003054B
:100C5000E76B1F43E76300E0354300201EE00127F8
:100C600087401F40C7B122684FEA800C0F2707FA60
:100C70000CF7BA43870005FA07F73A43282904D14D
:100C8000012787401F40676105E0482903D10127FC
:100C900087401F4027612260471CB8B20828DED376
:100CA000082022E0012787401F40E7B16268A0F1D9
:100CB00008074FEA870C0F2707FA0CF7BA43A0F191
:100CC0000807BF0005FA07F73A43282904D101278E
:100CD00087401F40676105E0482903D1012787400D
:100CE0001F4027616260471CB8B21028DAD3F0BDFC
:100CF000F0B50A46002300240021002500F000463C
:100D0000B6F1004F02D11D4EF16901E01B4E716832
:100D1000C0F3034583B200F44016B6F5401F08D176
:100D200021F0E061154E766826F0E066134F7E6094
:100D300012E000F48016B6F5801F06D1032606FAED
:100D400005F4A14341F0E06106E0460D360103FAE7
:100D500006F6B14341F0E06122B1460D360103FAD7
:100D600006F6314300F00046B6F1004F02D1034EC3
:100D7000F16101E0014E7160F0BD00000000014032
:100D800000F048FAFFF792FA00BFFFF755FAFCE7C8
:100D9000F0B50B30154D20F007010024144A0FE088
:100DA00003688B420BD38B4205D95E1A4318476800
:100DB000C3E9006700E04368136002C004E0021D5D
:100DC00010680028ECD12046002802D1286808B11C
:100DD0000020F0BD064A07481060074A121A22F0A8
:100DE0000702C0E9002401202860D7E72C0000207A
:100DF00028000020AC000020A80400202DE9F041CC
:100E000003460D46164600240027A0462A480068DF
:100E100000F4E060B0F5E06F03D100BF4FF00408CC
:100E200030E02548006800F4E060B0F5C06F03D101
:100E300001274FF0030825E01F48006800F4E06038
:100E4000B0F5A06F02D10227B8461BE01A4800682F
:100E500000F4E060B0F5806F03D103274FF0010884
:100E600010E01548006800F4E060B0F5407F03D161
:100E700004274FF0000805E04FF4A06000F020F8D0
:100E80000227B846C7F1040005FA00F4C8F10401CE
:100E90000F20C8403040044324010848C45403F0E4
:100EA0001F01012088405911890001F1E021C1F89A
:100EB0000001BDE8F08100000CED00E000E400E07E
:100EC00002490143024A1160704700000000FA0520
:100ED0000CED00E02DE9F14F8EB000200C905CA0ED
:100EE00090E8004CC068CDE905BECDF810A0079091
:100EF00058A0D0F804A00068CDE9020A0FF2541AF5
:100F0000DAE9000ACDE9000A55484068C0F38100DB
:100F10000D900D9820B1012804D0022863D103E080
:100F2000504B62E0504B60E04D48406800F480391F
:100F3000B9F5803F2FD14A48C06A00F080400B903D
:100F40000B9808B9484A00E0484A4548C06A00F48E
:100F500080300A900A98B0F5803F12D14048C06AAC
:100F6000C0F30310401C08903D48C06AC0F3032042
:100F7000871C112F00D114270898B2FBF0F000FB5A
:100F800007F23748C06A00F00F00401C099009982A
:100F9000B2FBF0F200E0364A31484068C0F38341CA
:100FA0002F48406800F0005008B141F010012C4873
:100FB000406800F0804008B141F020010F2901D2C3
:100FC000891C06E00F2903D33E2901D8491C00E003
:100FD0003F2102FB01F30F2904D102EB4200400044
:100FE00000EB520301E01F4B00BF00BF1C484068EC
:100FF000C0F3031504A8465D23FA06F418484068B8
:10100000C0F3022502A8465D24FA06FC1448406895
:10101000C0F3C2251DF8056024FA06F80E9830B119
:10102000012806D0022806D003280AD106E00C9336
:1010300008E00C9406E0CDF830C003E0CDF8308035
:1010400000E000BF00BF0C980FB0BDE8F08F0000BB
:101050000000000000000000010203040607080968
:101060000010024000127A0040787D01006CDC0222
:1010700000093D00064A02EB9011096800F01F03C9
:1010800001229A401143024B03EB9012116070470A
:1010900000100240064A02EB9011096800F01F039D
:1010A00001229A409143024B03EB9012116070476A
:1010B00000100240064A02EB9011096800F01F037D
:1010C00001229A401143024B03EB901211607047CA
:1010D0000010024000200021464A126842F480328B
:1010E000444B1A6000BF401C424A126802F40031AF
:1010F00019B94FF6FF729042F5D13E4A126802F4D8
:1011000000320AB900BFFEE73A4AD26942F0805283
:10111000384BDA61384A126842F44042364B1A6062
:10112000344A5268334B5A601A4652685A601A461B
:10113000526842F480625A601A4652682F4B1A4035
:101140002C4B5A601A4652682D4B1A43294B5A6051
:101150001A46D26A2B4B1A40264BDA621A46D26ADA
:10116000294B1A43234BDA621A46126842F0806216
:101170001A6000BF1F4A126802F00062002AF9D00C
:101180001C4A126842F080721A4B1A6000BF194A5A
:10119000126802F00072002AF9D0174A126842F46D
:1011A0008032154B1A6000BF134A526802F4803235
:1011B000002AF9D0104A126842F400320E4B1A602D
:1011C00000BF0D4A526802F40032002AF9D0094AE1
:1011D000526822F00302074B5A601A46526842F0E6
:1011E00002025A6000BF034A526802F00802002A55
:1011F000F9D070470010024000700040FFFFC39F0D
:101200000000352000F0FEBF4906010010B5FFF7D1
:1012100061FF10BD10B5134800684FF47A71B0FB40
:10122000F1F4601EB0F1807F01D301200FE0601E59
:101230004FF0E02148610F214FF0FF30FFF722F817
:1012400000204FF0E021886107200861002008B1EC
:1012500000BFFEE70021481EFFF714F800200249F6
:10126000086010BD00000020080000202DE9F047B4
:1012700004460D460027B846B94600261D49601AA7
:101280008C421CD006DC1C48204470B1B0F5806F45
:101290001FD10FE0B0F5806F16D0B0F56C4F18D1AC
:1012A0000320FFF717FE074614E00220FFF712FEA7
:1012B00007460FE00220FFF70DFE07460AE0022076
:1012C000FFF708FE074605E00220FFF703FE07468A
:1012D00000E000BF00BF07EB5500B0FBF5F64FF68E
:1012E000F07006EA000806F00F0948EA0900A0605D
:1012F000BDE8F087004C004000BCFFBF01464868D5
:10130000C0F308007047C1F3080242607047000054
:1013100010B504462049601A8C4228D006DC1F48CC
:10132000204490B1B0F5806F33D117E0B0F5806FF5
:1013300026D0B0F56C4F2CD140F20E30FFF7BAFE3C
:1013400040F20E30FFF7A6FE24E040F21140FFF716
:10135000B1FE40F21140FFF79DFE1BE040F212404B
:10136000FFF7A8FE40F21240FFF794FE12E040F2B1
:101370001340FFF79FFE40F21340FFF78BFE09E09A
:1013800040F21440FFF796FE40F21440FFF782FE51
:1013900000E000BF00BF10BD004C004000BCFFBF1C
:1013A000C16821F40051C16070470A4600214169BB
:1013B00021F04001114341617047C16841F400517F
:1013C000C160704710B5024602EB9110006801F051
:1013D0001F040123A340184008B1012010BD0020C4
:1013E000FCE710B500EB9112126801F01F04012315
:1013F000A3401A4300EB91131A6010BDC26822F497
:10140000C062C260C2680A43C26070470A460021D7
:10141000C16821F004011143C1607047026922F4E0
:101420004052026102690A43026170470A46002184
:10143000C16821F008011143C1607047C26822F4FD
:101440008052C260C2680A43C26070476C140008D0
:101450000000002030000000F80800089C1400087C
:10146000300000207808000008090008000E270757
:10147000000000000000000000000000000000006C
:101480006505000845060008390500080000000051
:0C14900000000000000000000000000050
:04000005080001519D
:00000001FF
